{
  "_format": "hh-sol-artifact-1",
  "contractName": "TPLContract",
  "sourceName": "contracts/TPLContract.sol",
  "abi": [
    {
      "inputs": [],
      "stateMutability": "nonpayable",
      "type": "constructor"
    },
    {
      "anonymous": false,
      "inputs": [
        {
          "indexed": true,
          "internalType": "address",
          "name": "sender",
          "type": "address"
        },
        {
          "indexed": false,
          "internalType": "uint256",
          "name": "index",
          "type": "uint256"
        },
        {
          "indexed": false,
          "internalType": "uint256",
          "name": "timestamp",
          "type": "uint256"
        }
      ],
      "name": "BackupDataAdded",
      "type": "event"
    },
    {
      "anonymous": false,
      "inputs": [
        {
          "indexed": true,
          "internalType": "address",
          "name": "sender",
          "type": "address"
        },
        {
          "indexed": false,
          "internalType": "uint256",
          "name": "index",
          "type": "uint256"
        },
        {
          "indexed": false,
          "internalType": "uint256",
          "name": "timestamp",
          "type": "uint256"
        }
      ],
      "name": "CollectionDataAdded",
      "type": "event"
    },
    {
      "anonymous": false,
      "inputs": [
        {
          "indexed": true,
          "internalType": "address",
          "name": "sender",
          "type": "address"
        },
        {
          "indexed": false,
          "internalType": "uint256",
          "name": "index",
          "type": "uint256"
        },
        {
          "indexed": false,
          "internalType": "uint256",
          "name": "timestamp",
          "type": "uint256"
        }
      ],
      "name": "ContributionAdded",
      "type": "event"
    },
    {
      "anonymous": false,
      "inputs": [
        {
          "indexed": true,
          "internalType": "address",
          "name": "sender",
          "type": "address"
        },
        {
          "indexed": false,
          "internalType": "uint256",
          "name": "index",
          "type": "uint256"
        },
        {
          "indexed": false,
          "internalType": "uint256",
          "name": "timestamp",
          "type": "uint256"
        }
      ],
      "name": "IoTDataAdded",
      "type": "event"
    },
    {
      "anonymous": false,
      "inputs": [
        {
          "indexed": true,
          "internalType": "address",
          "name": "sender",
          "type": "address"
        },
        {
          "indexed": false,
          "internalType": "uint256",
          "name": "index",
          "type": "uint256"
        },
        {
          "indexed": false,
          "internalType": "uint256",
          "name": "timestamp",
          "type": "uint256"
        }
      ],
      "name": "PrimaryDataAdded",
      "type": "event"
    },
    {
      "inputs": [
        {
          "internalType": "string",
          "name": "_dataString",
          "type": "string"
        }
      ],
      "name": "addBackupData",
      "outputs": [],
      "stateMutability": "nonpayable",
      "type": "function"
    },
    {
      "inputs": [
        {
          "internalType": "string",
          "name": "_dataString",
          "type": "string"
        }
      ],
      "name": "addCollectionData",
      "outputs": [],
      "stateMutability": "nonpayable",
      "type": "function"
    },
    {
      "inputs": [
        {
          "internalType": "string",
          "name": "_dataString",
          "type": "string"
        }
      ],
      "name": "addIoTData",
      "outputs": [],
      "stateMutability": "nonpayable",
      "type": "function"
    },
    {
      "inputs": [
        {
          "internalType": "string",
          "name": "_dataString",
          "type": "string"
        }
      ],
      "name": "addPrimaryData",
      "outputs": [],
      "stateMutability": "nonpayable",
      "type": "function"
    },
    {
      "inputs": [
        {
          "internalType": "uint256",
          "name": "",
          "type": "uint256"
        }
      ],
      "name": "backupDataList",
      "outputs": [
        {
          "internalType": "address",
          "name": "sender",
          "type": "address"
        },
        {
          "internalType": "string",
          "name": "data",
          "type": "string"
        },
        {
          "internalType": "uint256",
          "name": "timestamp",
          "type": "uint256"
        }
      ],
      "stateMutability": "view",
      "type": "function"
    },
    {
      "inputs": [
        {
          "internalType": "uint256",
          "name": "",
          "type": "uint256"
        }
      ],
      "name": "collectionDataList",
      "outputs": [
        {
          "internalType": "address",
          "name": "sender",
          "type": "address"
        },
        {
          "internalType": "string",
          "name": "data",
          "type": "string"
        },
        {
          "internalType": "uint256",
          "name": "timestamp",
          "type": "uint256"
        }
      ],
      "stateMutability": "view",
      "type": "function"
    },
    {
      "inputs": [
        {
          "internalType": "uint256",
          "name": "",
          "type": "uint256"
        }
      ],
      "name": "contributions",
      "outputs": [
        {
          "internalType": "address",
          "name": "sender",
          "type": "address"
        },
        {
          "internalType": "string",
          "name": "data",
          "type": "string"
        },
        {
          "internalType": "uint256",
          "name": "timestamp",
          "type": "uint256"
        }
      ],
      "stateMutability": "view",
      "type": "function"
    },
    {
      "inputs": [
        {
          "internalType": "uint256",
          "name": "_index",
          "type": "uint256"
        }
      ],
      "name": "getBackupData",
      "outputs": [
        {
          "internalType": "string",
          "name": "data",
          "type": "string"
        },
        {
          "internalType": "uint256",
          "name": "timestamp",
          "type": "uint256"
        },
        {
          "internalType": "address",
          "name": "sender",
          "type": "address"
        }
      ],
      "stateMutability": "view",
      "type": "function"
    },
    {
      "inputs": [
        {
          "internalType": "uint256",
          "name": "_index",
          "type": "uint256"
        }
      ],
      "name": "getCollectionData",
      "outputs": [
        {
          "internalType": "string",
          "name": "data",
          "type": "string"
        },
        {
          "internalType": "uint256",
          "name": "timestamp",
          "type": "uint256"
        },
        {
          "internalType": "address",
          "name": "sender",
          "type": "address"
        }
      ],
      "stateMutability": "view",
      "type": "function"
    },
    {
      "inputs": [
        {
          "internalType": "uint256",
          "name": "_index",
          "type": "uint256"
        }
      ],
      "name": "getContribution",
      "outputs": [
        {
          "internalType": "string",
          "name": "data",
          "type": "string"
        },
        {
          "internalType": "uint256",
          "name": "timestamp",
          "type": "uint256"
        },
        {
          "internalType": "address",
          "name": "sender",
          "type": "address"
        }
      ],
      "stateMutability": "view",
      "type": "function"
    },
    {
      "inputs": [],
      "name": "getDataCounts",
      "outputs": [
        {
          "internalType": "uint256",
          "name": "contrib",
          "type": "uint256"
        },
        {
          "internalType": "uint256",
          "name": "iot",
          "type": "uint256"
        },
        {
          "internalType": "uint256",
          "name": "col",
          "type": "uint256"
        },
        {
          "internalType": "uint256",
          "name": "back",
          "type": "uint256"
        },
        {
          "internalType": "uint256",
          "name": "pri",
          "type": "uint256"
        }
      ],
      "stateMutability": "view",
      "type": "function"
    },
    {
      "inputs": [
        {
          "internalType": "uint256",
          "name": "_index",
          "type": "uint256"
        }
      ],
      "name": "getIoTData",
      "outputs": [
        {
          "internalType": "string",
          "name": "data",
          "type": "string"
        },
        {
          "internalType": "uint256",
          "name": "timestamp",
          "type": "uint256"
        },
        {
          "internalType": "address",
          "name": "sender",
          "type": "address"
        }
      ],
      "stateMutability": "view",
      "type": "function"
    },
    {
      "inputs": [
        {
          "internalType": "uint256",
          "name": "_index",
          "type": "uint256"
        }
      ],
      "name": "getPrimaryData",
      "outputs": [
        {
          "internalType": "string",
          "name": "data",
          "type": "string"
        },
        {
          "internalType": "uint256",
          "name": "timestamp",
          "type": "uint256"
        },
        {
          "internalType": "address",
          "name": "sender",
          "type": "address"
        }
      ],
      "stateMutability": "view",
      "type": "function"
    },
    {
      "inputs": [
        {
          "internalType": "uint256",
          "name": "",
          "type": "uint256"
        }
      ],
      "name": "iotDataList",
      "outputs": [
        {
          "internalType": "address",
          "name": "sender",
          "type": "address"
        },
        {
          "internalType": "string",
          "name": "data",
          "type": "string"
        },
        {
          "internalType": "uint256",
          "name": "timestamp",
          "type": "uint256"
        }
      ],
      "stateMutability": "view",
      "type": "function"
    },
    {
      "inputs": [],
      "name": "owner",
      "outputs": [
        {
          "internalType": "address",
          "name": "",
          "type": "address"
        }
      ],
      "stateMutability": "view",
      "type": "function"
    },
    {
      "inputs": [
        {
          "internalType": "uint256",
          "name": "",
          "type": "uint256"
        }
      ],
      "name": "primaryDataList",
      "outputs": [
        {
          "internalType": "address",
          "name": "sender",
          "type": "address"
        },
        {
          "internalType": "string",
          "name": "data",
          "type": "string"
        },
        {
          "internalType": "uint256",
          "name": "timestamp",
          "type": "uint256"
        }
      ],
      "stateMutability": "view",
      "type": "function"
    },
    {
      "inputs": [
        {
          "internalType": "string",
          "name": "_cid",
          "type": "string"
        }
      ],
      "name": "submitContribution",
      "outputs": [],
      "stateMutability": "nonpayable",
      "type": "function"
    }
  ],
  "bytecode": "0x6080604052348015600f57600080fd5b50600080546001600160a01b03191633179055610d25806100316000396000f3fe608060405234801561001057600080fd5b506004361061011b5760003560e01c8063b2574d38116100b2578063ee83687b11610081578063f57b35f111610066578063f57b35f11461026b578063fc2b5d43146102a2578063fc746cde146102b557600080fd5b8063ee83687b14610245578063ef57fcd71461025857600080fd5b8063b2574d38146101ea578063cef42254146101fd578063d3c9d8151461021f578063df6f5b201461023257600080fd5b806351ab82fb116100ee57806351ab82fb146101865780637c1135c514610199578063894a5d70146101ac5780638da5cb5b146101bf57600080fd5b80631cee07001461012057806325e8f28f1461014b57806335aaa0a9146101605780634e7550d614610173575b600080fd5b61013361012e3660046109d8565b6102c8565b60405161014293929190610a37565b60405180910390f35b61015e610159366004610a7f565b610390565b005b61013361016e3660046109d8565b610492565b61015e610181366004610a7f565b6104a2565b61015e610194366004610a7f565b610589565b6101336101a73660046109d8565b610672565b6101336101ba3660046109d8565b610682565b6000546101d2906001600160a01b031681565b6040516001600160a01b039091168152602001610142565b6101336101f83660046109d8565b610692565b61021061020b3660046109d8565b6106a2565b60405161014293929190610b38565b61021061022d3660046109d8565b6107a1565b6102106102403660046109d8565b6107bb565b6102106102533660046109d8565b6107d5565b6102106102663660046109d8565b6107ef565b600154600254600354600454600554604080519586526020860194909452928401919091526060830152608082015260a001610142565b61015e6102b0366004610a7f565b610809565b61015e6102c3366004610a7f565b6108f1565b600181815481106102d857600080fd5b6000918252602090912060039091020180546001820180546001600160a01b0390921693509061030790610b6a565b80601f016020809104026020016040519081016040528092919081815260200182805461033390610b6a565b80156103805780601f1061035557610100808354040283529160200191610380565b820191906000526020600020905b81548152906001019060200180831161036357829003601f168201915b5050505050908060020154905083565b604080516060810182523381526020810183815242928201929092526004805460018101825560009190915281517f8a35acfbc15ff81a39ae7d344fd709f28e8600b4aa8c65c6b64bfe7fe36bd19b600390920291820180546001600160a01b0319166001600160a01b0390921691909117815592519192917f8a35acfbc15ff81a39ae7d344fd709f28e8600b4aa8c65c6b64bfe7fe36bd19c909101906104389082610bf3565b506040919091015160029091015560045433907f58e0be4e6d038d9b34baab659146ef82b4dd6f1b4ec7310157860f0a88bf25cc9061047990600190610cb2565b604080519182524260208301520160405180910390a250565b600381815481106102d857600080fd5b604080516060810182523381526020810183815242928201929092526002805460018101825560009190915281517f405787fa12a823e0f2b7631cc41b3ba8828b3321ca811111fa75cd3aa3bb5ace600390920291820180546001600160a01b0319166001600160a01b0390921691909117815592519192917f405787fa12a823e0f2b7631cc41b3ba8828b3321ca811111fa75cd3aa3bb5acf9091019061054a9082610bf3565b50604091909101516002918201555433907f50d09df2efcc83d4a7333bb84917ee6d0c33de752035c63b64db4c2d771400139061047990600190610cb2565b604080516060810182523381526020810183815242928201929092526005805460018101825560009190915281517f036b6384b5eca791c62761152d0c79bb0604c104a5fb6f4eb0703f3154bb3db0600390920291820180546001600160a01b0319166001600160a01b0390921691909117815592519192917f036b6384b5eca791c62761152d0c79bb0604c104a5fb6f4eb0703f3154bb3db1909101906106319082610bf3565b506040919091015160029091015560055433907f018cbfda8643d1f1fb4e61574f2d0cf1ca48fb7928a3d2af80ac8a1c27c2573e9061047990600190610cb2565b600281815481106102d857600080fd5b600581815481106102d857600080fd5b600481815481106102d857600080fd5b60606000806000600185815481106106bc576106bc610cd9565b6000918252602091829020604080516060810190915260039092020180546001600160a01b0316825260018101805492939192918401916106fc90610b6a565b80601f016020809104026020016040519081016040528092919081815260200182805461072890610b6a565b80156107755780601f1061074a57610100808354040283529160200191610775565b820191906000526020600020905b81548152906001019060200180831161075857829003601f168201915b505050918352505060029190910154602091820152810151604082015191519097919650945092505050565b60606000806000600585815481106106bc576106bc610cd9565b60606000806000600385815481106106bc576106bc610cd9565b60606000806000600285815481106106bc576106bc610cd9565b60606000806000600485815481106106bc576106bc610cd9565b60408051606081018252338152602081018381524292820192909252600380546001810182556000829052825191027fc2575a0e9e593c00f959f8c92f12db2869c3395a3b0502d05e2516446f71f85b810180546001600160a01b03939093166001600160a01b03199093169290921782559251919290917fc2575a0e9e593c00f959f8c92f12db2869c3395a3b0502d05e2516446f71f85c909101906108b09082610bf3565b506040919091015160029091015560035433907fc2df99de9bdbba1d26e084b98b6ef177fcc39fd2301a8470dc2e546665d6d60a9061047990600190610cb2565b6040805160608101825233815260208101838152429282019290925260018054808201825560009190915281517fb10e2d527612073b26eecdfd717e6a320cf44b4afac2b0732d9fcbe2b7fa0cf6600390920291820180546001600160a01b0319166001600160a01b0390921691909117815592519192917fb10e2d527612073b26eecdfd717e6a320cf44b4afac2b0732d9fcbe2b7fa0cf7909101906109989082610bf3565b50604091909101516002909101556001805433917fd51536b687caf52ac0a4f7008c1ffecc1b0d746f5ef64803892f3cef5f45d460916104799190610cb2565b6000602082840312156109ea57600080fd5b5035919050565b6000815180845260005b81811015610a17576020818501810151868301820152016109fb565b506000602082860101526020601f19601f83011685010191505092915050565b6001600160a01b0384168152606060208201526000610a5960608301856109f1565b9050826040830152949350505050565b634e487b7160e01b600052604160045260246000fd5b600060208284031215610a9157600080fd5b813567ffffffffffffffff811115610aa857600080fd5b8201601f81018413610ab957600080fd5b803567ffffffffffffffff811115610ad357610ad3610a69565b604051601f8201601f19908116603f0116810167ffffffffffffffff81118282101715610b0257610b02610a69565b604052818152828201602001861015610b1a57600080fd5b81602084016020830137600091810160200191909152949350505050565b606081526000610b4b60608301866109f1565b90508360208301526001600160a01b0383166040830152949350505050565b600181811c90821680610b7e57607f821691505b602082108103610b9e57634e487b7160e01b600052602260045260246000fd5b50919050565b601f821115610bee57806000526020600020601f840160051c81016020851015610bcb5750805b601f840160051c820191505b81811015610beb5760008155600101610bd7565b50505b505050565b815167ffffffffffffffff811115610c0d57610c0d610a69565b610c2181610c1b8454610b6a565b84610ba4565b6020601f821160018114610c555760008315610c3d5750848201515b600019600385901b1c1916600184901b178455610beb565b600084815260208120601f198516915b82811015610c855787850151825560209485019460019092019101610c65565b5084821015610ca35786840151600019600387901b60f8161c191681555b50505050600190811b01905550565b81810381811115610cd357634e487b7160e01b600052601160045260246000fd5b92915050565b634e487b7160e01b600052603260045260246000fdfea264697066735822122057858e8cba43b4fd2bf76bda98da2be6e1ac1d6e53bfbdce80b8eef97b888d3864736f6c634300081c0033",
  "linkReferences": {},
  "deployedLinkReferences": {}
}