{
  "_format": "hh-sol-artifact-1",
  "contractName": "TYTAgriSupplyChain",
  "sourceName": "contracts/TYTAgriSupplyChain.sol",
  "abi": [
    {
      "inputs": [
        {
          "internalType": "bytes32",
          "name": "_companyId",
          "type": "bytes32"
        },
        {
          "internalType": "address",
          "name": "_companyOwner",
          "type": "address"
        }
      ],
      "stateMutability": "nonpayable",
      "type": "constructor"
    },
    {
      "inputs": [],
      "name": "AccessControlBadConfirmation",
      "type": "error"
    },
    {
      "inputs": [
        {
          "internalType": "address",
          "name": "account",
          "type": "address"
        },
        {
          "internalType": "bytes32",
          "name": "neededRole",
          "type": "bytes32"
        }
      ],
      "name": "AccessControlUnauthorizedAccount",
      "type": "error"
    },
    {
      "anonymous": false,
      "inputs": [
        {
          "indexed": true,
          "internalType": "address",
          "name": "account",
          "type": "address"
        },
        {
          "indexed": true,
          "internalType": "address",
          "name": "auditor",
          "type": "address"
        }
      ],
      "name": "AuditorAdded",
      "type": "event"
    },
    {
      "anonymous": false,
      "inputs": [
        {
          "indexed": true,
          "internalType": "address",
          "name": "account",
          "type": "address"
        },
        {
          "indexed": true,
          "internalType": "address",
          "name": "auditor",
          "type": "address"
        }
      ],
      "name": "AuditorRemoved",
      "type": "event"
    },
    {
      "anonymous": false,
      "inputs": [
        {
          "indexed": true,
          "internalType": "address",
          "name": "oldOwner",
          "type": "address"
        },
        {
          "indexed": true,
          "internalType": "address",
          "name": "newOwner",
          "type": "address"
        },
        {
          "indexed": false,
          "internalType": "uint256",
          "name": "updatedAt",
          "type": "uint256"
        }
      ],
      "name": "CompanyOwnerUpdated",
      "type": "event"
    },
    {
      "anonymous": false,
      "inputs": [
        {
          "indexed": true,
          "internalType": "string",
          "name": "productId",
          "type": "string"
        },
        {
          "indexed": false,
          "internalType": "string",
          "name": "productName",
          "type": "string"
        },
        {
          "indexed": false,
          "internalType": "bytes32",
          "name": "companyId",
          "type": "bytes32"
        },
        {
          "indexed": false,
          "internalType": "string",
          "name": "description",
          "type": "string"
        },
        {
          "indexed": false,
          "internalType": "uint256",
          "name": "updateAt",
          "type": "uint256"
        }
      ],
      "name": "ProductAdded",
      "type": "event"
    },
    {
      "anonymous": false,
      "inputs": [
        {
          "indexed": true,
          "internalType": "string",
          "name": "productId",
          "type": "string"
        },
        {
          "indexed": true,
          "internalType": "address",
          "name": "deactivatedBy",
          "type": "address"
        },
        {
          "indexed": false,
          "internalType": "uint256",
          "name": "deactivatedAt",
          "type": "uint256"
        }
      ],
      "name": "ProductDeactivated",
      "type": "event"
    },
    {
      "anonymous": false,
      "inputs": [
        {
          "indexed": true,
          "internalType": "address",
          "name": "account",
          "type": "address"
        },
        {
          "indexed": true,
          "internalType": "address",
          "name": "admin",
          "type": "address"
        }
      ],
      "name": "ProductManagerAdded",
      "type": "event"
    },
    {
      "anonymous": false,
      "inputs": [
        {
          "indexed": true,
          "internalType": "address",
          "name": "account",
          "type": "address"
        },
        {
          "indexed": true,
          "internalType": "address",
          "name": "admin",
          "type": "address"
        }
      ],
      "name": "ProductManagerRemoved",
      "type": "event"
    },
    {
      "anonymous": false,
      "inputs": [
        {
          "indexed": true,
          "internalType": "bytes32",
          "name": "role",
          "type": "bytes32"
        },
        {
          "indexed": true,
          "internalType": "bytes32",
          "name": "previousAdminRole",
          "type": "bytes32"
        },
        {
          "indexed": true,
          "internalType": "bytes32",
          "name": "newAdminRole",
          "type": "bytes32"
        }
      ],
      "name": "RoleAdminChanged",
      "type": "event"
    },
    {
      "anonymous": false,
      "inputs": [
        {
          "indexed": true,
          "internalType": "bytes32",
          "name": "role",
          "type": "bytes32"
        },
        {
          "indexed": true,
          "internalType": "address",
          "name": "account",
          "type": "address"
        },
        {
          "indexed": true,
          "internalType": "address",
          "name": "sender",
          "type": "address"
        }
      ],
      "name": "RoleGranted",
      "type": "event"
    },
    {
      "anonymous": false,
      "inputs": [
        {
          "indexed": true,
          "internalType": "bytes32",
          "name": "role",
          "type": "bytes32"
        },
        {
          "indexed": true,
          "internalType": "address",
          "name": "account",
          "type": "address"
        },
        {
          "indexed": true,
          "internalType": "address",
          "name": "sender",
          "type": "address"
        }
      ],
      "name": "RoleRevoked",
      "type": "event"
    },
    {
      "anonymous": false,
      "inputs": [
        {
          "indexed": true,
          "internalType": "string",
          "name": "productId",
          "type": "string"
        },
        {
          "indexed": false,
          "internalType": "string",
          "name": "_newProcesses",
          "type": "string"
        },
        {
          "indexed": false,
          "internalType": "uint256",
          "name": "updateAt",
          "type": "uint256"
        }
      ],
      "name": "UpdatedProcesses",
      "type": "event"
    },
    {
      "anonymous": false,
      "inputs": [
        {
          "indexed": true,
          "internalType": "string",
          "name": "productId",
          "type": "string"
        },
        {
          "indexed": false,
          "internalType": "string",
          "name": "oldStatus",
          "type": "string"
        },
        {
          "indexed": false,
          "internalType": "string",
          "name": "newStatus",
          "type": "string"
        },
        {
          "indexed": false,
          "internalType": "uint256",
          "name": "updateAt",
          "type": "uint256"
        }
      ],
      "name": "UpdatedProductStatus",
      "type": "event"
    },
    {
      "inputs": [],
      "name": "AUDITOR_ROLE",
      "outputs": [
        {
          "internalType": "bytes32",
          "name": "",
          "type": "bytes32"
        }
      ],
      "stateMutability": "view",
      "type": "function"
    },
    {
      "inputs": [],
      "name": "DEFAULT_ADMIN_ROLE",
      "outputs": [
        {
          "internalType": "bytes32",
          "name": "",
          "type": "bytes32"
        }
      ],
      "stateMutability": "view",
      "type": "function"
    },
    {
      "inputs": [],
      "name": "PRODUCT_MANAGER_ROLE",
      "outputs": [
        {
          "internalType": "bytes32",
          "name": "",
          "type": "bytes32"
        }
      ],
      "stateMutability": "view",
      "type": "function"
    },
    {
      "inputs": [
        {
          "internalType": "address",
          "name": "account",
          "type": "address"
        }
      ],
      "name": "addAuditor",
      "outputs": [],
      "stateMutability": "nonpayable",
      "type": "function"
    },
    {
      "inputs": [
        {
          "internalType": "string",
          "name": "_productId",
          "type": "string"
        },
        {
          "internalType": "string",
          "name": "_productName",
          "type": "string"
        },
        {
          "internalType": "string",
          "name": "_description",
          "type": "string"
        }
      ],
      "name": "addProduct",
      "outputs": [],
      "stateMutability": "nonpayable",
      "type": "function"
    },
    {
      "inputs": [
        {
          "internalType": "address",
          "name": "account",
          "type": "address"
        }
      ],
      "name": "addProductManager",
      "outputs": [],
      "stateMutability": "nonpayable",
      "type": "function"
    },
    {
      "inputs": [],
      "name": "companyId",
      "outputs": [
        {
          "internalType": "bytes32",
          "name": "",
          "type": "bytes32"
        }
      ],
      "stateMutability": "view",
      "type": "function"
    },
    {
      "inputs": [],
      "name": "companyOwner",
      "outputs": [
        {
          "internalType": "address",
          "name": "",
          "type": "address"
        }
      ],
      "stateMutability": "view",
      "type": "function"
    },
    {
      "inputs": [
        {
          "internalType": "string",
          "name": "_productId",
          "type": "string"
        }
      ],
      "name": "deactivateProduct",
      "outputs": [],
      "stateMutability": "nonpayable",
      "type": "function"
    },
    {
      "inputs": [],
      "name": "factory",
      "outputs": [
        {
          "internalType": "address",
          "name": "",
          "type": "address"
        }
      ],
      "stateMutability": "view",
      "type": "function"
    },
    {
      "inputs": [],
      "name": "getAllProductIds",
      "outputs": [
        {
          "internalType": "string[]",
          "name": "",
          "type": "string[]"
        }
      ],
      "stateMutability": "view",
      "type": "function"
    },
    {
      "inputs": [],
      "name": "getCompanyOwner",
      "outputs": [
        {
          "internalType": "address",
          "name": "",
          "type": "address"
        }
      ],
      "stateMutability": "view",
      "type": "function"
    },
    {
      "inputs": [
        {
          "internalType": "string",
          "name": "_productId",
          "type": "string"
        }
      ],
      "name": "getProductBatches",
      "outputs": [
        {
          "internalType": "string[]",
          "name": "",
          "type": "string[]"
        }
      ],
      "stateMutability": "view",
      "type": "function"
    },
    {
      "inputs": [
        {
          "internalType": "string",
          "name": "_productId",
          "type": "string"
        },
        {
          "internalType": "string",
          "name": "batch",
          "type": "string"
        }
      ],
      "name": "getProductByBatch",
      "outputs": [
        {
          "internalType": "string",
          "name": "productId",
          "type": "string"
        },
        {
          "internalType": "string",
          "name": "productName",
          "type": "string"
        },
        {
          "internalType": "string",
          "name": "description",
          "type": "string"
        },
        {
          "internalType": "string",
          "name": "status",
          "type": "string"
        },
        {
          "internalType": "string",
          "name": "processes",
          "type": "string"
        },
        {
          "internalType": "bool",
          "name": "isActive",
          "type": "bool"
        }
      ],
      "stateMutability": "view",
      "type": "function"
    },
    {
      "inputs": [
        {
          "internalType": "string",
          "name": "_productId",
          "type": "string"
        }
      ],
      "name": "getProductInfo",
      "outputs": [
        {
          "internalType": "string",
          "name": "productId",
          "type": "string"
        },
        {
          "internalType": "string",
          "name": "productName",
          "type": "string"
        },
        {
          "internalType": "string",
          "name": "description",
          "type": "string"
        },
        {
          "internalType": "bool",
          "name": "isActive",
          "type": "bool"
        }
      ],
      "stateMutability": "view",
      "type": "function"
    },
    {
      "inputs": [
        {
          "internalType": "bytes32",
          "name": "role",
          "type": "bytes32"
        }
      ],
      "name": "getRoleAdmin",
      "outputs": [
        {
          "internalType": "bytes32",
          "name": "",
          "type": "bytes32"
        }
      ],
      "stateMutability": "view",
      "type": "function"
    },
    {
      "inputs": [
        {
          "internalType": "bytes32",
          "name": "role",
          "type": "bytes32"
        },
        {
          "internalType": "address",
          "name": "account",
          "type": "address"
        }
      ],
      "name": "grantRole",
      "outputs": [],
      "stateMutability": "nonpayable",
      "type": "function"
    },
    {
      "inputs": [
        {
          "internalType": "string",
          "name": "_productId",
          "type": "string"
        }
      ],
      "name": "hasProduct",
      "outputs": [
        {
          "internalType": "bool",
          "name": "",
          "type": "bool"
        }
      ],
      "stateMutability": "view",
      "type": "function"
    },
    {
      "inputs": [
        {
          "internalType": "bytes32",
          "name": "role",
          "type": "bytes32"
        },
        {
          "internalType": "address",
          "name": "account",
          "type": "address"
        }
      ],
      "name": "hasRole",
      "outputs": [
        {
          "internalType": "bool",
          "name": "",
          "type": "bool"
        }
      ],
      "stateMutability": "view",
      "type": "function"
    },
    {
      "inputs": [
        {
          "internalType": "string",
          "name": "",
          "type": "string"
        }
      ],
      "name": "products",
      "outputs": [
        {
          "internalType": "string",
          "name": "productId",
          "type": "string"
        },
        {
          "internalType": "string",
          "name": "productName",
          "type": "string"
        },
        {
          "internalType": "string",
          "name": "description",
          "type": "string"
        },
        {
          "internalType": "bool",
          "name": "isActive",
          "type": "bool"
        }
      ],
      "stateMutability": "view",
      "type": "function"
    },
    {
      "inputs": [
        {
          "internalType": "string",
          "name": "_productId",
          "type": "string"
        }
      ],
      "name": "reactivateProduct",
      "outputs": [],
      "stateMutability": "nonpayable",
      "type": "function"
    },
    {
      "inputs": [
        {
          "internalType": "address",
          "name": "account",
          "type": "address"
        }
      ],
      "name": "removeAuditor",
      "outputs": [],
      "stateMutability": "nonpayable",
      "type": "function"
    },
    {
      "inputs": [
        {
          "internalType": "address",
          "name": "account",
          "type": "address"
        }
      ],
      "name": "removeProductManager",
      "outputs": [],
      "stateMutability": "nonpayable",
      "type": "function"
    },
    {
      "inputs": [
        {
          "internalType": "bytes32",
          "name": "role",
          "type": "bytes32"
        },
        {
          "internalType": "address",
          "name": "callerConfirmation",
          "type": "address"
        }
      ],
      "name": "renounceRole",
      "outputs": [],
      "stateMutability": "nonpayable",
      "type": "function"
    },
    {
      "inputs": [
        {
          "internalType": "bytes32",
          "name": "role",
          "type": "bytes32"
        },
        {
          "internalType": "address",
          "name": "account",
          "type": "address"
        }
      ],
      "name": "revokeRole",
      "outputs": [],
      "stateMutability": "nonpayable",
      "type": "function"
    },
    {
      "inputs": [
        {
          "internalType": "bytes4",
          "name": "interfaceId",
          "type": "bytes4"
        }
      ],
      "name": "supportsInterface",
      "outputs": [
        {
          "internalType": "bool",
          "name": "",
          "type": "bool"
        }
      ],
      "stateMutability": "view",
      "type": "function"
    },
    {
      "inputs": [
        {
          "internalType": "address",
          "name": "_newOwner",
          "type": "address"
        }
      ],
      "name": "updateCompanyOwner",
      "outputs": [],
      "stateMutability": "nonpayable",
      "type": "function"
    },
    {
      "inputs": [
        {
          "internalType": "string",
          "name": "_productId",
          "type": "string"
        },
        {
          "internalType": "string",
          "name": "batch",
          "type": "string"
        },
        {
          "internalType": "string",
          "name": "_newProcesses",
          "type": "string"
        }
      ],
      "name": "updateProductProcesses",
      "outputs": [],
      "stateMutability": "nonpayable",
      "type": "function"
    },
    {
      "inputs": [
        {
          "internalType": "string",
          "name": "_productId",
          "type": "string"
        },
        {
          "internalType": "string",
          "name": "batch",
          "type": "string"
        },
        {
          "internalType": "string",
          "name": "_status",
          "type": "string"
        }
      ],
      "name": "updateProductStatus",
      "outputs": [],
      "stateMutability": "nonpayable",
      "type": "function"
    }
  ],
  "bytecode": "0x60a060405234801561001057600080fd5b50604051612e03380380612e0383398101604081905261002f9161012a565b60018054336001600160a01b031991821681179092556080849052600280549091166001600160a01b03841617905561006a9060009061007e565b5061007660008261007e565b505050610167565b6000828152602081815260408083206001600160a01b038516845290915281205460ff16610120576000838152602081815260408083206001600160a01b03861684529091529020805460ff191660011790556100d83390565b6001600160a01b0316826001600160a01b0316847f2f8788117e7eff1d82e926ec794901d17c78024a50270940304540a733656f0d60405160405180910390a4506001610124565b5060005b92915050565b6000806040838503121561013d57600080fd5b825160208401519092506001600160a01b038116811461015c57600080fd5b809150509250929050565b608051612c736101906000396000818161034201528181610ada015261142e0152612c736000f3fe608060405234801561001057600080fd5b50600436106101cf5760003560e01c80637bc3a73311610104578063c45a0155116100a2578063dad3e6dd11610071578063dad3e6dd14610479578063e429cef11461048a578063e6116cfd1461049d578063e6c5e473146104b057600080fd5b8063c45a015514610415578063cb29789714610440578063d27fb60714610453578063d547741f1461046657600080fd5b806398c66b03116100de57806398c66b03146103c2578063a217fddf146103d5578063aa23f843146103dd578063c1f611821461040257600080fd5b80637bc3a7331461033d5780638f8e39011461036457806391d148541461038b57600080fd5b80632f2ff15d1161017157806357ba11b01161014b57806357ba11b0146102e8578063663c01af146102fb5780636e1d616e146103035780636e85bcad1461032a57600080fd5b80632f2ff15d146102af5780632f9f7989146102c257806336568abe146102d557600080fd5b80630e34b00e116101ad5780630e34b00e1461024357806320d0dce914610258578063248a9ca31461026b5780632bd9edc61461029c57600080fd5b80630186a423146101d457806301ffc9a714610200578063033e9cc314610223575b600080fd5b6101e76101e2366004612535565b6104c3565b6040516101f794939291906125c2565b60405180910390f35b61021361020e36600461260f565b610691565b60405190151581526020016101f7565b61023661023136600461269a565b6106a2565b6040516101f791906126dc565b610256610251366004612741565b610886565b005b61021361026636600461269a565b610b1f565b61028e6102793660046127e7565b60009081526020819052604090206001015490565b6040519081526020016101f7565b6102566102aa36600461281c565b610b88565b6102566102bd366004612837565b610c45565b6102566102d036600461269a565b610c70565b6102566102e3366004612837565b610e08565b6101e76102f636600461269a565b610e59565b61023661113c565b61028e7f59a1c48e5837ad7a7f3dcedcbe129bf3249ec4fbf651fd4f5e2600ead39fe2f581565b61025661033836600461269a565b611215565b61028e7f000000000000000000000000000000000000000000000000000000000000000081565b61028e7f6393b9644ce4c807825084a6005494e3614c60e5c6b55898819660856eca231a81565b610213610399366004612837565b6000918252602082815260408084206001600160a01b0393909316845291905290205460ff1690565b6102566103d0366004612741565b61146f565b61028e600081565b6103f06103eb366004612863565b6117e5565b6040516101f7969594939291906128cc565b61025661041036600461281c565b611c6e565b600154610428906001600160a01b031681565b6040516001600160a01b0390911681526020016101f7565b61025661044e36600461281c565b611d3e565b600254610428906001600160a01b031681565b610256610474366004612837565b611dfb565b6002546001600160a01b0316610428565b61025661049836600461281c565b611e20565b6102566104ab36600461281c565b611edd565b6102566104be366004612741565b611f9a565b80516020818301810180516004825292820191909301209152805481906104e990612943565b80601f016020809104026020016040519081016040528092919081815260200182805461051590612943565b80156105625780601f1061053757610100808354040283529160200191610562565b820191906000526020600020905b81548152906001019060200180831161054557829003601f168201915b50505050509080600101805461057790612943565b80601f01602080910402602001604051908101604052809291908181526020018280546105a390612943565b80156105f05780601f106105c5576101008083540402835291602001916105f0565b820191906000526020600020905b8154815290600101906020018083116105d357829003601f168201915b50505050509080600201805461060590612943565b80601f016020809104026020016040519081016040528092919081815260200182805461063190612943565b801561067e5780601f106106535761010080835404028352916020019161067e565b820191906000526020600020905b81548152906001019060200180831161066157829003601f168201915b5050506005909301549192505060ff1684565b600061069c8261224f565b92915050565b60606000600484846040516106b892919061297d565b90815260405190819003602001902080546106d290612943565b90501161071a5760405162461bcd60e51b8152602060048201526011602482015270141c9bd91d58dd081b9bdd08199bdd5b99607a1b60448201526064015b60405180910390fd5b6004838360405161072c92919061297d565b9081526040519081900360200190206005015460ff1661078e5760405162461bcd60e51b815260206004820152601560248201527f50726f64756374206973206e6f742061637469766500000000000000000000006044820152606401610711565b600583836040516107a092919061297d565b9081526020016040518091039020805480602002602001604051908101604052809291908181526020016000905b8282101561087a5783829060005260206000200180546107ed90612943565b80601f016020809104026020016040519081016040528092919081815260200182805461081990612943565b80156108665780601f1061083b57610100808354040283529160200191610866565b820191906000526020600020905b81548152906001019060200180831161084957829003601f168201915b5050505050815260200190600101906107ce565b50505050905092915050565b3360009081527fc220bcb37c1964c710aac06e6fddb3898141f8e89b96c5ba28281b342a9fe3a0602052604090205460ff16806108f157503360009081527fad3228b676f7d3cd4284a5443f17f1962b36e491b30a40b2405849e597ba5fb5602052604090205460ff165b61093d5760405162461bcd60e51b815260206004820152601f60248201527f43616c6c6572206973206e6f7420612070726f64756374206d616e61676572006044820152606401610711565b8461098a5760405162461bcd60e51b815260206004820152601a60248201527f50726f647563742049442063616e6e6f7420626520656d7074790000000000006044820152606401610711565b6004868660405161099c92919061297d565b9081526040519081900360200190206005015460ff16156109ff5760405162461bcd60e51b815260206004820152601060248201527f50726f64756374207265676973746564000000000000000000000000000000006044820152606401610711565b600060048787604051610a1392919061297d565b908152604051908190036020019020905080610a308789836129db565b5060018101610a408587836129db565b5060028101610a508385836129db565b5060058101805460ff191660019081179091556003805491820181556000527fc2575a0e9e593c00f959f8c92f12db2869c3395a3b0502d05e2516446f71f85b01610a9c8789836129db565b508686604051610aad92919061297d565b60405180910390207f0f4b621eeac1e977cf61954e9b80078017fef4ae83905694f57e972d767c749486867f0000000000000000000000000000000000000000000000000000000000000000878742604051610b0e96959493929190612ac4565b60405180910390a250505050505050565b60008060048484604051610b3492919061297d565b9081526040519081900360200190208054610b4e90612943565b9050118015610b81575060048383604051610b6a92919061297d565b9081526040519081900360200190206005015460ff165b9392505050565b6000610b93816122e6565b6001600160a01b038216610be05760405162461bcd60e51b8152602060048201526014602482015273496e76616c69642075736572206164647265737360601b6044820152606401610711565b610c0a7f6393b9644ce4c807825084a6005494e3614c60e5c6b55898819660856eca231a836122f3565b5060405133906001600160a01b038416907f82287c5d9fdbbd38eb9bc903c5c07ff6db3b89e7e40ba3a8247dccea4f0b022090600090a35050565b600082815260208190526040902060010154610c60816122e6565b610c6a83836122f3565b50505050565b3360009081527fc220bcb37c1964c710aac06e6fddb3898141f8e89b96c5ba28281b342a9fe3a0602052604090205460ff1680610cdb57503360009081527fad3228b676f7d3cd4284a5443f17f1962b36e491b30a40b2405849e597ba5fb5602052604090205460ff165b610d275760405162461bcd60e51b815260206004820152601f60248201527f43616c6c6572206973206e6f7420612070726f64756374206d616e61676572006044820152606401610711565b610d318282610b1f565b610d885760405162461bcd60e51b815260206004820152602260248201527f50726f64756374206973206e6f7420616374697665206f72206e6f7420666f756044820152611b9960f21b6064820152608401610711565b600060048383604051610d9c92919061297d565b90815260405190819003602001812060058101805460ff1916905591503390610dc8908590859061297d565b604051908190038120428252907f5d8fb87abf5e208059de5b578c9dbb003b8a2516870629958f7b889ae6a37618906020015b60405180910390a3505050565b6001600160a01b0381163314610e4a576040517f6697b23200000000000000000000000000000000000000000000000000000000815260040160405180910390fd5b610e54828261239d565b505050565b606080606060008060048787604051610e7392919061297d565b9081526040519081900360200190208054610e8d90612943565b905011610ed05760405162461bcd60e51b8152602060048201526011602482015270141c9bd91d58dd081b9bdd08199bdd5b99607a1b6044820152606401610711565b60048686604051610ee292919061297d565b9081526040519081900360200190206005015460ff16610f445760405162461bcd60e51b815260206004820152601560248201527f50726f64756374206973206e6f742061637469766500000000000000000000006044820152606401610711565b600060048787604051610f5892919061297d565b908152602001604051809103902090508060000181600101826002018360050160009054906101000a900460ff16838054610f9290612943565b80601f0160208091040260200160405190810160405280929190818152602001828054610fbe90612943565b801561100b5780601f10610fe05761010080835404028352916020019161100b565b820191906000526020600020905b815481529060010190602001808311610fee57829003601f168201915b5050505050935082805461101e90612943565b80601f016020809104026020016040519081016040528092919081815260200182805461104a90612943565b80156110975780601f1061106c57610100808354040283529160200191611097565b820191906000526020600020905b81548152906001019060200180831161107a57829003601f168201915b505050505092508180546110aa90612943565b80601f01602080910402602001604051908101604052809291908181526020018280546110d690612943565b80156111235780601f106110f857610100808354040283529160200191611123565b820191906000526020600020905b81548152906001019060200180831161110657829003601f168201915b5050505050915094509450945094505092959194509250565b60606003805480602002602001604051908101604052809291908181526020016000905b8282101561120c57838290600052602060002001805461117f90612943565b80601f01602080910402602001604051908101604052809291908181526020018280546111ab90612943565b80156111f85780601f106111cd576101008083540402835291602001916111f8565b820191906000526020600020905b8154815290600101906020018083116111db57829003601f168201915b505050505081526020019060010190611160565b50505050905090565b3360009081527fc220bcb37c1964c710aac06e6fddb3898141f8e89b96c5ba28281b342a9fe3a0602052604090205460ff168061128057503360009081527fad3228b676f7d3cd4284a5443f17f1962b36e491b30a40b2405849e597ba5fb5602052604090205460ff165b6112cc5760405162461bcd60e51b815260206004820152601f60248201527f43616c6c6572206973206e6f7420612070726f64756374206d616e61676572006044820152606401610711565b6000600483836040516112e092919061297d565b90815260405190819003602001902080546112fa90612943565b9050116113495760405162461bcd60e51b815260206004820152601660248201527f50726f6475637420646f6573206e6f74206578697374000000000000000000006044820152606401610711565b6004828260405161135b92919061297d565b9081526040519081900360200190206005015460ff16156113be5760405162461bcd60e51b815260206004820152601960248201527f50726f6475637420697320616c726561647920616374697665000000000000006044820152606401610711565b6000600483836040516113d292919061297d565b90815260405190819003602001812060058101805460ff1916600117905591506113ff908490849061297d565b60405180910390207f0f4b621eeac1e977cf61954e9b80078017fef4ae83905694f57e972d767c7494826001017f000000000000000000000000000000000000000000000000000000000000000084600201426040516114629493929190612b88565b60405180910390a2505050565b3360009081527fc220bcb37c1964c710aac06e6fddb3898141f8e89b96c5ba28281b342a9fe3a0602052604090205460ff16806114da57503360009081527fad3228b676f7d3cd4284a5443f17f1962b36e491b30a40b2405849e597ba5fb5602052604090205460ff165b6115265760405162461bcd60e51b815260206004820152601f60248201527f43616c6c6572206973206e6f7420612070726f64756374206d616e61676572006044820152606401610711565b6115308686610b1f565b6115875760405162461bcd60e51b815260206004820152602260248201527f50726f64756374206973206e6f7420616374697665206f72206e6f7420666f756044820152611b9960f21b6064820152608401610711565b826115d45760405162461bcd60e51b815260206004820152601860248201527f42617463682049442063616e6e6f7420626520656d70747900000000000000006044820152606401610711565b6000600487876040516115e892919061297d565b9081526020016040518091039020905080600301858560405161160c92919061297d565b9081526020016040518091039020805461162590612943565b1590508015611660575080600401858560405161164392919061297d565b9081526020016040518091039020805461165c90612943565b1590505b156116a5576005878760405161167792919061297d565b9081526040516020918190038201902080546001810182556000918252919020016116a38587836129db565b505b60008160030186866040516116bb92919061297d565b908152602001604051809103902080546116d490612943565b80601f016020809104026020016040519081016040528092919081815260200182805461170090612943565b801561174d5780601f106117225761010080835404028352916020019161174d565b820191906000526020600020905b81548152906001019060200180831161173057829003601f168201915b50505050509050838383600301888860405161176a92919061297d565b908152602001604051809103902091826117859291906129db565b50878760405161179692919061297d565b60405180910390207ffd0c19e6320a5ae1a36e389f509c92ab817e6b83e831d734967f4c43ca83e5f6828686426040516117d39493929190612bc5565b60405180910390a25050505050505050565b60608060608060606000806004896040516118009190612bfd565b908152604051908190036020019020805461181a90612943565b90501161185d5760405162461bcd60e51b8152602060048201526011602482015270141c9bd91d58dd081b9bdd08199bdd5b99607a1b6044820152606401610711565b60048860405161186d9190612bfd565b9081526040519081900360200190206005015460ff166118cf5760405162461bcd60e51b815260206004820152601560248201527f50726f64756374206973206e6f742061637469766500000000000000000000006044820152606401610711565b60008751116119205760405162461bcd60e51b815260206004820152601860248201527f42617463682049442063616e6e6f7420626520656d70747900000000000000006044820152606401610711565b60006004896040516119329190612bfd565b90815260200160405180910390209050806000018160010182600201836003018b6040516119609190612bfd565b9081526020016040518091039020846004018c6040516119809190612bfd565b9081526040519081900360200190206005860154855460ff9091169086906119a790612943565b80601f01602080910402602001604051908101604052809291908181526020018280546119d390612943565b8015611a205780601f106119f557610100808354040283529160200191611a20565b820191906000526020600020905b815481529060010190602001808311611a0357829003601f168201915b50505050509550848054611a3390612943565b80601f0160208091040260200160405190810160405280929190818152602001828054611a5f90612943565b8015611aac5780601f10611a8157610100808354040283529160200191611aac565b820191906000526020600020905b815481529060010190602001808311611a8f57829003601f168201915b50505050509450838054611abf90612943565b80601f0160208091040260200160405190810160405280929190818152602001828054611aeb90612943565b8015611b385780601f10611b0d57610100808354040283529160200191611b38565b820191906000526020600020905b815481529060010190602001808311611b1b57829003601f168201915b50505050509350828054611b4b90612943565b80601f0160208091040260200160405190810160405280929190818152602001828054611b7790612943565b8015611bc45780601f10611b9957610100808354040283529160200191611bc4565b820191906000526020600020905b815481529060010190602001808311611ba757829003601f168201915b50505050509250818054611bd790612943565b80601f0160208091040260200160405190810160405280929190818152602001828054611c0390612943565b8015611c505780601f10611c2557610100808354040283529160200191611c50565b820191906000526020600020905b815481529060010190602001808311611c3357829003601f168201915b50505050509150965096509650965096509650509295509295509295565b6000611c79816122e6565b6001600160a01b038216611ccf5760405162461bcd60e51b815260206004820152601560248201527f496e76616c6964206f776e6572206164647265737300000000000000000000006044820152606401610711565b600280546001600160a01b038481167fffffffffffffffffffffffff0000000000000000000000000000000000000000831681179093556040519116919082907fb625b3d2a581ea812644d1ffe9863bc6c1d7b8734b5918804ead6d4a5d32c89990610dfb9042815260200190565b6000611d49816122e6565b6001600160a01b038216611d965760405162461bcd60e51b8152602060048201526014602482015273496e76616c69642075736572206164647265737360601b6044820152606401610711565b611dc07f6393b9644ce4c807825084a6005494e3614c60e5c6b55898819660856eca231a8361239d565b5060405133906001600160a01b038416907f08f3755dce0f4367bbf4c0f4c7c4de391d4d81283e4a0a1f264eb017519410e690600090a35050565b600082815260208190526040902060010154611e16816122e6565b610c6a838361239d565b6000611e2b816122e6565b6001600160a01b038216611e785760405162461bcd60e51b8152602060048201526014602482015273496e76616c69642075736572206164647265737360601b6044820152606401610711565b611ea27f59a1c48e5837ad7a7f3dcedcbe129bf3249ec4fbf651fd4f5e2600ead39fe2f5836122f3565b5060405133906001600160a01b038416907fcc87511c7fb15fb9ce79e288d00a0b658042c4adcc173e3851b02349b1f5658f90600090a35050565b6000611ee8816122e6565b6001600160a01b038216611f355760405162461bcd60e51b8152602060048201526014602482015273496e76616c69642075736572206164647265737360601b6044820152606401610711565b611f5f7f59a1c48e5837ad7a7f3dcedcbe129bf3249ec4fbf651fd4f5e2600ead39fe2f58361239d565b5060405133906001600160a01b038416907f6f4e66bc1a67d2bceaf153b87107824178b717d2af8341d60f8e2f7bb7f7da3990600090a35050565b3360009081527f0d2d6a5d08cb5d871289c0a3ca855d9da72909a111c24cce2d5c2b34a20daa54602052604090205460ff168061200557503360009081527fad3228b676f7d3cd4284a5443f17f1962b36e491b30a40b2405849e597ba5fb5602052604090205460ff165b8061203e57503360009081527fc220bcb37c1964c710aac06e6fddb3898141f8e89b96c5ba28281b342a9fe3a0602052604090205460ff165b61208a5760405162461bcd60e51b815260206004820152601860248201527f43616c6c6572206973206e6f7420616e2061756469746f7200000000000000006044820152606401610711565b6120948686610b1f565b6120eb5760405162461bcd60e51b815260206004820152602260248201527f50726f64756374206973206e6f7420616374697665206f72206e6f7420666f756044820152611b9960f21b6064820152608401610711565b826121385760405162461bcd60e51b815260206004820152601860248201527f42617463682049442063616e6e6f7420626520656d70747900000000000000006044820152606401610711565b60006004878760405161214c92919061297d565b9081526020016040518091039020905080600401858560405161217092919061297d565b9081526020016040518091039020805461218990612943565b90506000036121d257600587876040516121a492919061297d565b9081526040516020918190038201902080546001810182556000918252919020016121d08587836129db565b505b82828260040187876040516121e892919061297d565b908152602001604051809103902091826122039291906129db565b50868660405161221492919061297d565b60405180910390207f7785f578aa103c24cc869cc891fb8506173c88a1797464d4c98e41da9c5a4775848442604051610b0e93929190612c19565b60007fffffffff0000000000000000000000000000000000000000000000000000000082167f7965db0b00000000000000000000000000000000000000000000000000000000148061069c57507f01ffc9a7000000000000000000000000000000000000000000000000000000007fffffffff0000000000000000000000000000000000000000000000000000000083161461069c565b6122f08133612420565b50565b6000828152602081815260408083206001600160a01b038516845290915281205460ff16612395576000838152602081815260408083206001600160a01b03861684529091529020805460ff1916600117905561234d3390565b6001600160a01b0316826001600160a01b0316847f2f8788117e7eff1d82e926ec794901d17c78024a50270940304540a733656f0d60405160405180910390a450600161069c565b50600061069c565b6000828152602081815260408083206001600160a01b038516845290915281205460ff1615612395576000838152602081815260408083206001600160a01b0386168085529252808320805460ff1916905551339286917ff6391f5c32d9c69d2a47ea670b442974b53935d1edc7fd64eb21e047a839171b9190a450600161069c565b6000828152602081815260408083206001600160a01b038516845290915290205460ff1661248c576040517fe2517d3f0000000000000000000000000000000000000000000000000000000081526001600160a01b038216600482015260248101839052604401610711565b5050565b634e487b7160e01b600052604160045260246000fd5b600082601f8301126124b757600080fd5b813567ffffffffffffffff8111156124d1576124d1612490565b604051601f8201601f19908116603f0116810167ffffffffffffffff8111828210171561250057612500612490565b60405281815283820160200185101561251857600080fd5b816020850160208301376000918101602001919091529392505050565b60006020828403121561254757600080fd5b813567ffffffffffffffff81111561255e57600080fd5b61256a848285016124a6565b949350505050565b60005b8381101561258d578181015183820152602001612575565b50506000910152565b600081518084526125ae816020860160208601612572565b601f01601f19169290920160200192915050565b6080815260006125d56080830187612596565b82810360208401526125e78187612596565b905082810360408401526125fb8186612596565b915050821515606083015295945050505050565b60006020828403121561262157600080fd5b81357fffffffff0000000000000000000000000000000000000000000000000000000081168114610b8157600080fd5b60008083601f84011261266357600080fd5b50813567ffffffffffffffff81111561267b57600080fd5b60208301915083602082850101111561269357600080fd5b9250929050565b600080602083850312156126ad57600080fd5b823567ffffffffffffffff8111156126c457600080fd5b6126d085828601612651565b90969095509350505050565b6000602082016020835280845180835260408501915060408160051b86010192506020860160005b8281101561273557603f19878603018452612720858351612596565b94506020938401939190910190600101612704565b50929695505050505050565b6000806000806000806060878903121561275a57600080fd5b863567ffffffffffffffff81111561277157600080fd5b61277d89828a01612651565b909750955050602087013567ffffffffffffffff81111561279d57600080fd5b6127a989828a01612651565b909550935050604087013567ffffffffffffffff8111156127c957600080fd5b6127d589828a01612651565b979a9699509497509295939492505050565b6000602082840312156127f957600080fd5b5035919050565b80356001600160a01b038116811461281757600080fd5b919050565b60006020828403121561282e57600080fd5b610b8182612800565b6000806040838503121561284a57600080fd5b8235915061285a60208401612800565b90509250929050565b6000806040838503121561287657600080fd5b823567ffffffffffffffff81111561288d57600080fd5b612899858286016124a6565b925050602083013567ffffffffffffffff8111156128b657600080fd5b6128c2858286016124a6565b9150509250929050565b60c0815260006128df60c0830189612596565b82810360208401526128f18189612596565b905082810360408401526129058188612596565b905082810360608401526129198187612596565b9050828103608084015261292d8186612596565b91505082151560a0830152979650505050505050565b600181811c9082168061295757607f821691505b60208210810361297757634e487b7160e01b600052602260045260246000fd5b50919050565b8183823760009101908152919050565b601f821115610e5457806000526020600020601f840160051c810160208510156129b45750805b601f840160051c820191505b818110156129d457600081556001016129c0565b5050505050565b67ffffffffffffffff8311156129f3576129f3612490565b612a0783612a018354612943565b8361298d565b6000601f841160018114612a3b5760008515612a235750838201355b600019600387901b1c1916600186901b1783556129d4565b600083815260209020601f19861690835b82811015612a6c5786850135825560209485019460019092019101612a4c565b5086821015612a895760001960f88860031b161c19848701351681555b505060018560011b0183555050505050565b81835281816020850137506000828201602090810191909152601f909101601f19169091010190565b608081526000612ad860808301888a612a9b565b8660208401528281036040840152612af1818688612a9b565b915050826060830152979650505050505050565b60008154612b1281612943565b808552600182168015612b2c5760018114612b4857612b7f565b60ff1983166020870152602082151560051b8701019350612b7f565b84600052602060002060005b83811015612b765781546020828a010152600182019150602081019050612b54565b87016020019450505b50505092915050565b608081526000612b9b6080830187612b05565b8560208401528281036040840152612bb38186612b05565b91505082606083015295945050505050565b606081526000612bd86060830187612596565b8281036020840152612beb818688612a9b565b91505082604083015295945050505050565b60008251612c0f818460208701612572565b9190910192915050565b604081526000612c2d604083018587612a9b565b905082602083015294935050505056fea26469706673582212209601ad2f0b9727e3d516dc58bf8d2d1c2b551412ff6c5df59386f3941e31e9ab64736f6c634300081c0033",
  "linkReferences": {},
  "deployedLinkReferences": {}
}